{
  "contractName": "MethodMarketplace",
  "abi": [
    {
      "inputs": [],
      "stateMutability": "nonpayable",
      "type": "constructor"
    },
    {
      "inputs": [],
      "name": "InvalidState",
      "type": "error"
    },
    {
      "inputs": [],
      "name": "MethodHasOwner",
      "type": "error"
    },
    {
      "inputs": [],
      "name": "MethodIsNotCreated",
      "type": "error"
    },
    {
      "inputs": [],
      "name": "OnlyOwner",
      "type": "error"
    },
    {
      "inputs": [],
      "name": "SenderIsNotMethodOwner",
      "type": "error"
    },
    {
      "inputs": [],
      "name": "isStopped",
      "outputs": [
        {
          "internalType": "bool",
          "name": "",
          "type": "bool"
        }
      ],
      "stateMutability": "view",
      "type": "function",
      "constant": true
    },
    {
      "stateMutability": "payable",
      "type": "receive",
      "payable": true
    },
    {
      "inputs": [
        {
          "internalType": "uint256",
          "name": "amount",
          "type": "uint256"
        }
      ],
      "name": "withdraw",
      "outputs": [],
      "stateMutability": "nonpayable",
      "type": "function"
    },
    {
      "inputs": [],
      "name": "emergencyWithdraw",
      "outputs": [],
      "stateMutability": "nonpayable",
      "type": "function"
    },
    {
      "inputs": [],
      "name": "selfDestruct",
      "outputs": [],
      "stateMutability": "nonpayable",
      "type": "function"
    },
    {
      "inputs": [],
      "name": "stopContract",
      "outputs": [],
      "stateMutability": "nonpayable",
      "type": "function"
    },
    {
      "inputs": [],
      "name": "resumeContract",
      "outputs": [],
      "stateMutability": "nonpayable",
      "type": "function"
    },
    {
      "inputs": [
        {
          "internalType": "bytes16",
          "name": "methodId",
          "type": "bytes16"
        },
        {
          "internalType": "bytes32",
          "name": "proof",
          "type": "bytes32"
        }
      ],
      "name": "purchaseMethod",
      "outputs": [],
      "stateMutability": "payable",
      "type": "function",
      "payable": true
    },
    {
      "inputs": [
        {
          "internalType": "bytes32",
          "name": "methodHash",
          "type": "bytes32"
        }
      ],
      "name": "repurchaseMethod",
      "outputs": [],
      "stateMutability": "payable",
      "type": "function",
      "payable": true
    },
    {
      "inputs": [
        {
          "internalType": "bytes32",
          "name": "methodHash",
          "type": "bytes32"
        }
      ],
      "name": "activateMethod",
      "outputs": [],
      "stateMutability": "nonpayable",
      "type": "function"
    },
    {
      "inputs": [
        {
          "internalType": "bytes32",
          "name": "methodHash",
          "type": "bytes32"
        }
      ],
      "name": "deactivateMethod",
      "outputs": [],
      "stateMutability": "nonpayable",
      "type": "function"
    },
    {
      "inputs": [
        {
          "internalType": "address",
          "name": "newOwner",
          "type": "address"
        }
      ],
      "name": "transferOwnership",
      "outputs": [],
      "stateMutability": "nonpayable",
      "type": "function"
    },
    {
      "inputs": [],
      "name": "getMethodCount",
      "outputs": [
        {
          "internalType": "uint256",
          "name": "",
          "type": "uint256"
        }
      ],
      "stateMutability": "view",
      "type": "function",
      "constant": true
    },
    {
      "inputs": [
        {
          "internalType": "uint256",
          "name": "index",
          "type": "uint256"
        }
      ],
      "name": "getMethodHashAtIndex",
      "outputs": [
        {
          "internalType": "bytes32",
          "name": "",
          "type": "bytes32"
        }
      ],
      "stateMutability": "view",
      "type": "function",
      "constant": true
    },
    {
      "inputs": [
        {
          "internalType": "bytes32",
          "name": "methodHash",
          "type": "bytes32"
        }
      ],
      "name": "getMethodByHash",
      "outputs": [
        {
          "components": [
            {
              "internalType": "uint256",
              "name": "id",
              "type": "uint256"
            },
            {
              "internalType": "uint256",
              "name": "price",
              "type": "uint256"
            },
            {
              "internalType": "bytes32",
              "name": "proof",
              "type": "bytes32"
            },
            {
              "internalType": "address",
              "name": "owner",
              "type": "address"
            },
            {
              "internalType": "enum MethodMarketplace.State",
              "name": "state",
              "type": "uint8"
            }
          ],
          "internalType": "struct MethodMarketplace.Method",
          "name": "",
          "type": "tuple"
        }
      ],
      "stateMutability": "view",
      "type": "function",
      "constant": true
    },
    {
      "inputs": [],
      "name": "getContractOwner",
      "outputs": [
        {
          "internalType": "address",
          "name": "",
          "type": "address"
        }
      ],
      "stateMutability": "view",
      "type": "function",
      "constant": true
    }
  ],
  "bytecode": "0x608060405260008060006101000a81548160ff02191690831515021790555034801561002a57600080fd5b5061003a3361003f60201b60201c565b610083565b80600460006101000a81548173ffffffffffffffffffffffffffffffffffffffff021916908373ffffffffffffffffffffffffffffffffffffffff16021790555050565b61196b806100926000396000f3fe6080604052600436106100ec5760003560e01c8063790284251161008a578063d96c2c9d11610059578063d96c2c9d146102a6578063db2e21bc146102c2578063f2fde38b146102d9578063f3e29f1714610302576100f3565b8063790284251461021f57806395b530d61461023b5780639cb8a26a14610278578063c4bc5da51461028f576100f3565b80633f683b6a116100c65780633f683b6a14610161578063442890d51461018c57806348686214146101b75780636428fb02146101f4576100f3565b80630c4ccbb6146100f857806312253a6c146101215780632e1a7d4d14610138576100f3565b366100f357005b600080fd5b34801561010457600080fd5b5061011f600480360381019061011a919061146a565b61032b565b005b34801561012d57600080fd5b506101366105f6565b005b34801561014457600080fd5b5061015f600480360381019061015a9190611493565b61067e565b005b34801561016d57600080fd5b506101766107bc565b604051610183919061166c565b60405180910390f35b34801561019857600080fd5b506101a16107cd565b6040516101ae9190611651565b60405180910390f35b3480156101c357600080fd5b506101de60048036038101906101d99190611493565b6107f7565b6040516101eb9190611687565b60405180910390f35b34801561020057600080fd5b50610209610814565b60405161021691906116dd565b60405180910390f35b6102396004803603810190610234919061142e565b61081e565b005b34801561024757600080fd5b50610262600480360381019061025d919061146a565b610a23565b60405161026f91906116c2565b60405180910390f35b34801561028457600080fd5b5061028d610b4b565b005b34801561029b57600080fd5b506102a4610c09565b005b6102c060048036038101906102bb919061146a565b610c91565b005b3480156102ce57600080fd5b506102d7610e58565b005b3480156102e557600080fd5b5061030060048036038101906102fb9190611405565b610fac565b005b34801561030e57600080fd5b506103296004803603810190610324919061146a565b611024565b005b60008054906101000a900460ff161561034357600080fd5b61034b6107cd565b73ffffffffffffffffffffffffffffffffffffffff163373ffffffffffffffffffffffffffffffffffffffff16146103af576040517f5fc483c500000000000000000000000000000000000000000000000000000000815260040160405180910390fd5b6103b881611210565b6103ee576040517ffbd7454e00000000000000000000000000000000000000000000000000000000815260040160405180910390fd5b60006001600083815260200190815260200160002090506000600281111561043f577f4e487b7100000000000000000000000000000000000000000000000000000000600052602160045260246000fd5b8160030160149054906101000a900460ff166002811115610489577f4e487b7100000000000000000000000000000000000000000000000000000000600052602160045260246000fd5b146104c0576040517fbaf3f0f700000000000000000000000000000000000000000000000000000000815260040160405180910390fd5b60008160030160009054906101000a900473ffffffffffffffffffffffffffffffffffffffff1673ffffffffffffffffffffffffffffffffffffffff16826001015460405161050e9061163c565b60006040518083038185875af1925050503d806000811461054b576040519150601f19603f3d011682016040523d82523d6000602084013e610550565b606091505b5050905080610594576040517f08c379a000000000000000000000000000000000000000000000000000000000815260040161058b906116a2565b60405180910390fd5b60028260030160146101000a81548160ff021916908360028111156105e2577f4e487b7100000000000000000000000000000000000000000000000000000000600052602160045260246000fd5b021790555060008260010181905550505050565b6105fe6107cd565b73ffffffffffffffffffffffffffffffffffffffff163373ffffffffffffffffffffffffffffffffffffffff1614610662576040517f5fc483c500000000000000000000000000000000000000000000000000000000815260040160405180910390fd5b60016000806101000a81548160ff021916908315150217905550565b6106866107cd565b73ffffffffffffffffffffffffffffffffffffffff163373ffffffffffffffffffffffffffffffffffffffff16146106ea576040517f5fc483c500000000000000000000000000000000000000000000000000000000815260040160405180910390fd5b6000600460009054906101000a900473ffffffffffffffffffffffffffffffffffffffff1673ffffffffffffffffffffffffffffffffffffffff16826040516107329061163c565b60006040518083038185875af1925050503d806000811461076f576040519150601f19603f3d011682016040523d82523d6000602084013e610774565b606091505b50509050806107b8576040517f08c379a00000000000000000000000000000000000000000000000000000000081526004016107af906116a2565b60405180910390fd5b5050565b60008054906101000a900460ff1681565b6000600460009054906101000a900473ffffffffffffffffffffffffffffffffffffffff16905090565b600060026000838152602001908152602001600020549050919050565b6000600354905090565b60008054906101000a900460ff161561083657600080fd5b6000823360405160200161084b929190611610565b60405160208183030381529060405280519060200120905061086c8161127f565b156108a3576040517f2d8bafd300000000000000000000000000000000000000000000000000000000815260040160405180910390fd5b6000600360008154809291906108b8906117b7565b9190505590508160026000838152602001908152602001600020819055506040518060a001604052808281526020013481526020018481526020013373ffffffffffffffffffffffffffffffffffffffff16815260200160006002811115610949577f4e487b7100000000000000000000000000000000000000000000000000000000600052602160045260246000fd5b8152506001600084815260200190815260200160002060008201518160000155602082015181600101556040820151816002015560608201518160030160006101000a81548173ffffffffffffffffffffffffffffffffffffffff021916908373ffffffffffffffffffffffffffffffffffffffff16021790555060808201518160030160146101000a81548160ff02191690836002811115610a15577f4e487b7100000000000000000000000000000000000000000000000000000000600052602160045260246000fd5b021790555090505050505050565b610a2b611331565b600160008381526020019081526020016000206040518060a00160405290816000820154815260200160018201548152602001600282015481526020016003820160009054906101000a900473ffffffffffffffffffffffffffffffffffffffff1673ffffffffffffffffffffffffffffffffffffffff1673ffffffffffffffffffffffffffffffffffffffff1681526020016003820160149054906101000a900460ff166002811115610b08577f4e487b7100000000000000000000000000000000000000000000000000000000600052602160045260246000fd5b6002811115610b40577f4e487b7100000000000000000000000000000000000000000000000000000000600052602160045260246000fd5b815250509050919050565b60008054906101000a900460ff16610b6257600080fd5b610b6a6107cd565b73ffffffffffffffffffffffffffffffffffffffff163373ffffffffffffffffffffffffffffffffffffffff1614610bce576040517f5fc483c500000000000000000000000000000000000000000000000000000000815260040160405180910390fd5b600460009054906101000a900473ffffffffffffffffffffffffffffffffffffffff1673ffffffffffffffffffffffffffffffffffffffff16ff5b610c116107cd565b73ffffffffffffffffffffffffffffffffffffffff163373ffffffffffffffffffffffffffffffffffffffff1614610c75576040517f5fc483c500000000000000000000000000000000000000000000000000000000815260040160405180910390fd5b60008060006101000a81548160ff021916908315150217905550565b60008054906101000a900460ff1615610ca957600080fd5b610cb281611210565b610ce8576040517ffbd7454e00000000000000000000000000000000000000000000000000000000815260040160405180910390fd5b610cf18161127f565b610d27576040517fc19aa10b00000000000000000000000000000000000000000000000000000000815260040160405180910390fd5b6000600160008381526020019081526020016000209050600280811115610d77577f4e487b7100000000000000000000000000000000000000000000000000000000600052602160045260246000fd5b8160030160149054906101000a900460ff166002811115610dc1577f4e487b7100000000000000000000000000000000000000000000000000000000600052602160045260246000fd5b14610df8576040517fbaf3f0f700000000000000000000000000000000000000000000000000000000815260040160405180910390fd5b60008160030160146101000a81548160ff02191690836002811115610e46577f4e487b7100000000000000000000000000000000000000000000000000000000600052602160045260246000fd5b02179055503481600101819055505050565b60008054906101000a900460ff16610e6f57600080fd5b610e776107cd565b73ffffffffffffffffffffffffffffffffffffffff163373ffffffffffffffffffffffffffffffffffffffff1614610edb576040517f5fc483c500000000000000000000000000000000000000000000000000000000815260040160405180910390fd5b6000600460009054906101000a900473ffffffffffffffffffffffffffffffffffffffff1673ffffffffffffffffffffffffffffffffffffffff1647604051610f239061163c565b60006040518083038185875af1925050503d8060008114610f60576040519150601f19603f3d011682016040523d82523d6000602084013e610f65565b606091505b5050905080610fa9576040517f08c379a0000000000000000000000000000000000000000000000000000000008152600401610fa0906116a2565b60405180910390fd5b50565b610fb46107cd565b73ffffffffffffffffffffffffffffffffffffffff163373ffffffffffffffffffffffffffffffffffffffff1614611018576040517f5fc483c500000000000000000000000000000000000000000000000000000000815260040160405180910390fd5b611021816112ed565b50565b60008054906101000a900460ff161561103c57600080fd5b6110446107cd565b73ffffffffffffffffffffffffffffffffffffffff163373ffffffffffffffffffffffffffffffffffffffff16146110a8576040517f5fc483c500000000000000000000000000000000000000000000000000000000815260040160405180910390fd5b6110b181611210565b6110e7576040517ffbd7454e00000000000000000000000000000000000000000000000000000000815260040160405180910390fd5b600060016000838152602001908152602001600020905060006002811115611138577f4e487b7100000000000000000000000000000000000000000000000000000000600052602160045260246000fd5b8160030160149054906101000a900460ff166002811115611182577f4e487b7100000000000000000000000000000000000000000000000000000000600052602160045260246000fd5b146111b9576040517fbaf3f0f700000000000000000000000000000000000000000000000000000000815260040160405180910390fd5b60018160030160146101000a81548160ff02191690836002811115611207577f4e487b7100000000000000000000000000000000000000000000000000000000600052602160045260246000fd5b02179055505050565b60008073ffffffffffffffffffffffffffffffffffffffff166001600084815260200190815260200160002060030160009054906101000a900473ffffffffffffffffffffffffffffffffffffffff1673ffffffffffffffffffffffffffffffffffffffff1614159050919050565b60003373ffffffffffffffffffffffffffffffffffffffff166001600084815260200190815260200160002060030160009054906101000a900473ffffffffffffffffffffffffffffffffffffffff1673ffffffffffffffffffffffffffffffffffffffff16149050919050565b80600460006101000a81548173ffffffffffffffffffffffffffffffffffffffff021916908373ffffffffffffffffffffffffffffffffffffffff16021790555050565b6040518060a00160405280600081526020016000815260200160008019168152602001600073ffffffffffffffffffffffffffffffffffffffff168152602001600060028111156113ab577f4e487b7100000000000000000000000000000000000000000000000000000000600052602160045260246000fd5b81525090565b6000813590506113c0816118d9565b92915050565b6000813590506113d5816118f0565b92915050565b6000813590506113ea81611907565b92915050565b6000813590506113ff8161191e565b92915050565b60006020828403121561141757600080fd5b6000611425848285016113b1565b91505092915050565b6000806040838503121561144157600080fd5b600061144f858286016113c6565b9250506020611460858286016113db565b9150509250929050565b60006020828403121561147c57600080fd5b600061148a848285016113db565b91505092915050565b6000602082840312156114a557600080fd5b60006114b3848285016113f0565b91505092915050565b6114c581611714565b82525050565b6114d481611714565b82525050565b6114eb6114e682611714565b611800565b82525050565b6114fa81611726565b82525050565b61151161150c82611732565b611812565b82525050565b6115208161175e565b82525050565b61152f8161175e565b82525050565b61153e816117a5565b82525050565b6000611551600f83611703565b915061155c82611899565b602082019050919050565b60006115746000836116f8565b915061157f826118c2565b600082019050919050565b60a0820160008201516115a060008501826115f2565b5060208201516115b360208501826115f2565b5060408201516115c66040850182611517565b5060608201516115d960608501826114bc565b5060808201516115ec6080850182611535565b50505050565b6115fb8161179b565b82525050565b61160a8161179b565b82525050565b600061161c8285611500565b60108201915061162c82846114da565b6014820191508190509392505050565b600061164782611567565b9150819050919050565b600060208201905061166660008301846114cb565b92915050565b600060208201905061168160008301846114f1565b92915050565b600060208201905061169c6000830184611526565b92915050565b600060208201905081810360008301526116bb81611544565b9050919050565b600060a0820190506116d7600083018461158a565b92915050565b60006020820190506116f26000830184611601565b92915050565b600081905092915050565b600082825260208201905092915050565b600061171f8261177b565b9050919050565b60008115159050919050565b60007fffffffffffffffffffffffffffffffff0000000000000000000000000000000082169050919050565b6000819050919050565b6000819050611776826118c5565b919050565b600073ffffffffffffffffffffffffffffffffffffffff82169050919050565b6000819050919050565b60006117b082611768565b9050919050565b60006117c28261179b565b91507fffffffffffffffffffffffffffffffffffffffffffffffffffffffffffffffff8214156117f5576117f461182e565b5b600182019050919050565b600061180b8261181c565b9050919050565b6000819050919050565b60006118278261188c565b9050919050565b7f4e487b7100000000000000000000000000000000000000000000000000000000600052601160045260246000fd5b7f4e487b7100000000000000000000000000000000000000000000000000000000600052602160045260246000fd5b60008160601b9050919050565b7f5472616e73666572206661696c65640000000000000000000000000000000000600082015250565b50565b600381106118d6576118d561185d565b5b50565b6118e281611714565b81146118ed57600080fd5b50565b6118f981611732565b811461190457600080fd5b50565b6119108161175e565b811461191b57600080fd5b50565b6119278161179b565b811461193257600080fd5b5056fea2646970667358221220370b2b716d15537c930cb9d3873a9382e72100a6e506dffc693318eb7001dfee64736f6c63430008040033",
  "immutableReferences": {},
  "source": "// SPDX-License-Identifier: MIT\npragma solidity >=0.4.22 <0.9.0;\n\ncontract MethodMarketplace {\n    enum State {\n        Purchased,\n        Activated,\n        Deactivated\n    }\n\n    struct Method {\n        uint id; // 32\n        uint price; // 32\n        bytes32 proof; // 32\n        address owner; // 20\n        State state; // 1\n    }\n\n    bool public isStopped = false;\n\n    // Mapping of methodHash to Method data\n    mapping(bytes32 => Method) private ownedMethods;\n\n    // Mapping of methodId to methodHash\n    mapping(uint => bytes32) private ownedMethodHash;\n\n    // number of all methods = id of the method\n    uint private totalOwnedMethods;\n\n    address payable private owner;\n\n    constructor() {\n        setContractOwner(msg.sender);\n    }\n\n    /// Method has invalid state!\n    error InvalidState();\n\n    /// Method is not created!\n    error MethodIsNotCreated();\n\n    /// Method has already a owner!\n    error MethodHasOwner();\n\n    /// Sender is not the method owner!\n    error SenderIsNotMethodOwner();\n\n    /// Only owner has an access!\n    error OnlyOwner();\n\n    modifier onlyOwner() {\n        if (msg.sender != getContractOwner()) {\n            revert OnlyOwner();\n        }\n        _;\n    }\n\n    modifier onlyWhenNotStopped {\n        require(!isStopped);\n        _;\n    }\n\n    modifier onlyWhenStopped {\n        require(isStopped);\n        _;\n    }\n\n    receive() external payable {}\n\n    function withdraw(uint amount) external onlyOwner {\n        (bool success, ) = owner.call{value: amount}(\"\");\n        require(success, \"Transfer failed\");\n    }\n\n    function emergencyWithdraw() external onlyWhenStopped onlyOwner {\n        (bool success, ) = owner.call{value: address(this).balance}(\"\");\n        require(success, \"Transfer failed\");\n    }\n\n    function selfDestruct() external onlyWhenStopped onlyOwner {\n        selfdestruct(owner);\n    }\n\n    function stopContract() external onlyOwner {\n        isStopped = true;\n    }\n\n    function resumeContract() external onlyOwner {\n        isStopped = false;\n    }\n\n    // method id: 0x00000000000000000000000000003130\n    // proof: 0x0000000000000000000000000000313000000000000000000000000000003130\n    function purchaseMethod(bytes16 methodId, bytes32 proof) external payable onlyWhenNotStopped {\n        bytes32 methodHash = keccak256(abi.encodePacked(methodId, msg.sender));\n\n        if (hasMethodOwnership(methodHash)){\n            revert MethodHasOwner();\n        }\n\n        uint id = totalOwnedMethods++;\n\n        ownedMethodHash[id] = methodHash;\n        ownedMethods[methodHash] = Method({\n            id: id,\n            price: msg.value,\n            proof: proof,\n            owner: msg.sender,\n            state: State.Purchased\n        });\n    }\n\n    function repurchaseMethod(bytes32 methodHash) external payable onlyWhenNotStopped {\n        if (!isMethodCreated(methodHash)) {\n            revert MethodIsNotCreated();\n        }\n\n        if (!hasMethodOwnership(methodHash)) {\n            revert SenderIsNotMethodOwner();\n        }\n\n        Method storage method = ownedMethods[methodHash];\n\n        if (method.state != State.Deactivated) {\n            revert InvalidState();\n        }\n\n        method.state = State.Purchased;\n        method.price = msg.value;\n    }\n\n    function activateMethod(bytes32 methodHash) external onlyWhenNotStopped onlyOwner {\n        if (!isMethodCreated(methodHash)) {\n            revert MethodIsNotCreated();\n        }\n\n        Method storage method = ownedMethods[methodHash];\n\n        if (method.state != State.Purchased) {\n            revert InvalidState();\n        }\n\n        method.state = State.Activated;\n    }\n\n    function deactivateMethod(bytes32 methodHash) external onlyWhenNotStopped onlyOwner {\n        if (!isMethodCreated(methodHash)) {\n            revert MethodIsNotCreated();\n        }\n\n        Method storage method = ownedMethods[methodHash];\n\n        if (method.state != State.Purchased) {\n            revert InvalidState();\n        }\n\n        (bool success, ) = method.owner.call{value: method.price}(\"\");\n        require(success, \"Transfer failed\");\n\n        method.state = State.Deactivated;\n        method.price = 0;\n    }\n\n    function transferOwnership(address newOwner) external onlyOwner {\n        setContractOwner(newOwner);\n    }\n\n    function getMethodCount() external view returns (uint) {\n        return totalOwnedMethods;\n    }\n\n    function getMethodHashAtIndex(uint index) external view returns (bytes32) {\n        return ownedMethodHash[index];\n    } \n\n    function getMethodByHash(bytes32 methodHash) external view returns (Method memory) {\n        return ownedMethods[methodHash];\n    }\n\n    function getContractOwner() public view returns (address) {\n        return owner;\n    }\n\n    function setContractOwner(address newOwner) private {\n        owner = payable(newOwner);\n    }\n\n    function isMethodCreated(bytes32 methodHash) private view returns (bool) {\n        return ownedMethods[methodHash].owner != 0x0000000000000000000000000000000000000000;\n    }\n\n    function hasMethodOwnership(bytes32 methodHash) private view returns (bool) {\n        return ownedMethods[methodHash].owner == msg.sender;\n    } \n}\n",
  "sourcePath": "/Users/buudinhha/Vscode/blockchain/my-app/contracts/MethodMarketplace.sol",
  "compiler": {
    "name": "solc",
    "version": "0.8.4+commit.c7e474f2.Emscripten.clang"
  },
  "schemaVersion": "3.4.16",
  "updatedAt": "2024-01-22T14:58:39.035Z",
  "networkType": "ethereum",
  "devdoc": {
    "kind": "dev",
    "methods": {},
    "version": 1
  },
  "userdoc": {
    "errors": {
      "InvalidState()": [
        {
          "notice": "Method has invalid state!"
        }
      ],
      "MethodHasOwner()": [
        {
          "notice": "Method has already a owner!"
        }
      ],
      "MethodIsNotCreated()": [
        {
          "notice": "Method is not created!"
        }
      ],
      "OnlyOwner()": [
        {
          "notice": "Only owner has an access!"
        }
      ],
      "SenderIsNotMethodOwner()": [
        {
          "notice": "Sender is not the method owner!"
        }
      ]
    },
    "kind": "user",
    "methods": {},
    "version": 1
  }
}