{
  "contractName": "MethodMarketplace",
  "abi": [
    {
      "inputs": [],
      "stateMutability": "nonpayable",
      "type": "constructor"
    },
    {
      "inputs": [],
      "name": "InvalidState",
      "type": "error"
    },
    {
      "inputs": [],
      "name": "MethodHasOwner",
      "type": "error"
    },
    {
      "inputs": [],
      "name": "MethodIsNotCreated",
      "type": "error"
    },
    {
      "inputs": [],
      "name": "OnlyOwner",
      "type": "error"
    },
    {
      "inputs": [],
      "name": "SenderIsNotMethodOwner",
      "type": "error"
    },
    {
      "inputs": [
        {
          "internalType": "bytes16",
          "name": "methodId",
          "type": "bytes16"
        },
        {
          "internalType": "bytes32",
          "name": "proof",
          "type": "bytes32"
        }
      ],
      "name": "purchaseMethod",
      "outputs": [],
      "stateMutability": "payable",
      "type": "function",
      "payable": true
    },
    {
      "inputs": [
        {
          "internalType": "bytes32",
          "name": "methodHash",
          "type": "bytes32"
        }
      ],
      "name": "repurchaseMethod",
      "outputs": [],
      "stateMutability": "payable",
      "type": "function",
      "payable": true
    },
    {
      "inputs": [
        {
          "internalType": "bytes32",
          "name": "methodHash",
          "type": "bytes32"
        }
      ],
      "name": "activateMethod",
      "outputs": [],
      "stateMutability": "nonpayable",
      "type": "function"
    },
    {
      "inputs": [
        {
          "internalType": "bytes32",
          "name": "methodHash",
          "type": "bytes32"
        }
      ],
      "name": "deactivateMethod",
      "outputs": [],
      "stateMutability": "nonpayable",
      "type": "function"
    },
    {
      "inputs": [
        {
          "internalType": "address",
          "name": "newOwner",
          "type": "address"
        }
      ],
      "name": "transferOwnership",
      "outputs": [],
      "stateMutability": "nonpayable",
      "type": "function"
    },
    {
      "inputs": [],
      "name": "getMethodCount",
      "outputs": [
        {
          "internalType": "uint256",
          "name": "",
          "type": "uint256"
        }
      ],
      "stateMutability": "view",
      "type": "function",
      "constant": true
    },
    {
      "inputs": [
        {
          "internalType": "uint256",
          "name": "index",
          "type": "uint256"
        }
      ],
      "name": "getMethodHashAtIndex",
      "outputs": [
        {
          "internalType": "bytes32",
          "name": "",
          "type": "bytes32"
        }
      ],
      "stateMutability": "view",
      "type": "function",
      "constant": true
    },
    {
      "inputs": [
        {
          "internalType": "bytes32",
          "name": "methodHash",
          "type": "bytes32"
        }
      ],
      "name": "getMethodByHash",
      "outputs": [
        {
          "components": [
            {
              "internalType": "uint256",
              "name": "id",
              "type": "uint256"
            },
            {
              "internalType": "uint256",
              "name": "price",
              "type": "uint256"
            },
            {
              "internalType": "bytes32",
              "name": "proof",
              "type": "bytes32"
            },
            {
              "internalType": "address",
              "name": "owner",
              "type": "address"
            },
            {
              "internalType": "enum MethodMarketplace.State",
              "name": "state",
              "type": "uint8"
            }
          ],
          "internalType": "struct MethodMarketplace.Method",
          "name": "",
          "type": "tuple"
        }
      ],
      "stateMutability": "view",
      "type": "function",
      "constant": true
    },
    {
      "inputs": [],
      "name": "getContractOwner",
      "outputs": [
        {
          "internalType": "address",
          "name": "",
          "type": "address"
        }
      ],
      "stateMutability": "view",
      "type": "function",
      "constant": true
    }
  ],
  "bytecode": "0x608060405234801561001057600080fd5b506100203361002560201b60201c565b610069565b80600360006101000a81548173ffffffffffffffffffffffffffffffffffffffff021916908373ffffffffffffffffffffffffffffffffffffffff16021790555050565b611340806100786000396000f3fe6080604052600436106100865760003560e01c80637902842511610059578063790284251461014757806395b530d614610163578063d96c2c9d146101a0578063f2fde38b146101bc578063f3e29f17146101e557610086565b80630c4ccbb61461008b578063442890d5146100b457806348686214146100df5780636428fb021461011c575b600080fd5b34801561009757600080fd5b506100b260048036038101906100ad9190610e75565b61020e565b005b3480156100c057600080fd5b506100c96104c0565b6040516100d6919061104d565b60405180910390f35b3480156100eb57600080fd5b5061010660048036038101906101019190610e9e565b6104ea565b6040516101139190611068565b60405180910390f35b34801561012857600080fd5b50610131610507565b60405161013e91906110be565b60405180910390f35b610161600480360381019061015c9190610e39565b610511565b005b34801561016f57600080fd5b5061018a60048036038101906101859190610e75565b6106fd565b60405161019791906110a3565b60405180910390f35b6101ba60048036038101906101b59190610e75565b610824565b005b3480156101c857600080fd5b506101e360048036038101906101de9190610e10565b6109d2565b005b3480156101f157600080fd5b5061020c60048036038101906102079190610e75565b610a4a565b005b6102166104c0565b73ffffffffffffffffffffffffffffffffffffffff163373ffffffffffffffffffffffffffffffffffffffff161461027a576040517f5fc483c500000000000000000000000000000000000000000000000000000000815260040160405180910390fd5b61028381610c1d565b6102b9576040517ffbd7454e00000000000000000000000000000000000000000000000000000000815260040160405180910390fd5b6000806000838152602001908152602001600020905060006002811115610309577f4e487b7100000000000000000000000000000000000000000000000000000000600052602160045260246000fd5b8160030160149054906101000a900460ff166002811115610353577f4e487b7100000000000000000000000000000000000000000000000000000000600052602160045260246000fd5b1461038a576040517fbaf3f0f700000000000000000000000000000000000000000000000000000000815260040160405180910390fd5b60008160030160009054906101000a900473ffffffffffffffffffffffffffffffffffffffff1673ffffffffffffffffffffffffffffffffffffffff1682600101546040516103d890611038565b60006040518083038185875af1925050503d8060008114610415576040519150601f19603f3d011682016040523d82523d6000602084013e61041a565b606091505b505090508061045e576040517f08c379a000000000000000000000000000000000000000000000000000000000815260040161045590611083565b60405180910390fd5b60028260030160146101000a81548160ff021916908360028111156104ac577f4e487b7100000000000000000000000000000000000000000000000000000000600052602160045260246000fd5b021790555060008260010181905550505050565b6000600360009054906101000a900473ffffffffffffffffffffffffffffffffffffffff16905090565b600060016000838152602001908152602001600020549050919050565b6000600254905090565b6000823360405160200161052692919061100c565b60405160208183030381529060405280519060200120905061054781610c8b565b1561057e576040517f2d8bafd300000000000000000000000000000000000000000000000000000000815260040160405180910390fd5b6000600260008154809291906105939061118c565b9190505590508160016000838152602001908152602001600020819055506040518060a001604052808281526020013481526020018481526020013373ffffffffffffffffffffffffffffffffffffffff16815260200160006002811115610624577f4e487b7100000000000000000000000000000000000000000000000000000000600052602160045260246000fd5b81525060008084815260200190815260200160002060008201518160000155602082015181600101556040820151816002015560608201518160030160006101000a81548173ffffffffffffffffffffffffffffffffffffffff021916908373ffffffffffffffffffffffffffffffffffffffff16021790555060808201518160030160146101000a81548160ff021916908360028111156106ef577f4e487b7100000000000000000000000000000000000000000000000000000000600052602160045260246000fd5b021790555090505050505050565b610705610d3c565b6000808381526020019081526020016000206040518060a00160405290816000820154815260200160018201548152602001600282015481526020016003820160009054906101000a900473ffffffffffffffffffffffffffffffffffffffff1673ffffffffffffffffffffffffffffffffffffffff1673ffffffffffffffffffffffffffffffffffffffff1681526020016003820160149054906101000a900460ff1660028111156107e1577f4e487b7100000000000000000000000000000000000000000000000000000000600052602160045260246000fd5b6002811115610819577f4e487b7100000000000000000000000000000000000000000000000000000000600052602160045260246000fd5b815250509050919050565b61082d81610c1d565b610863576040517ffbd7454e00000000000000000000000000000000000000000000000000000000815260040160405180910390fd5b61086c81610c8b565b6108a2576040517fc19aa10b00000000000000000000000000000000000000000000000000000000815260040160405180910390fd5b600080600083815260200190815260200160002090506002808111156108f1577f4e487b7100000000000000000000000000000000000000000000000000000000600052602160045260246000fd5b8160030160149054906101000a900460ff16600281111561093b577f4e487b7100000000000000000000000000000000000000000000000000000000600052602160045260246000fd5b14610972576040517fbaf3f0f700000000000000000000000000000000000000000000000000000000815260040160405180910390fd5b60008160030160146101000a81548160ff021916908360028111156109c0577f4e487b7100000000000000000000000000000000000000000000000000000000600052602160045260246000fd5b02179055503481600101819055505050565b6109da6104c0565b73ffffffffffffffffffffffffffffffffffffffff163373ffffffffffffffffffffffffffffffffffffffff1614610a3e576040517f5fc483c500000000000000000000000000000000000000000000000000000000815260040160405180910390fd5b610a4781610cf8565b50565b610a526104c0565b73ffffffffffffffffffffffffffffffffffffffff163373ffffffffffffffffffffffffffffffffffffffff1614610ab6576040517f5fc483c500000000000000000000000000000000000000000000000000000000815260040160405180910390fd5b610abf81610c1d565b610af5576040517ffbd7454e00000000000000000000000000000000000000000000000000000000815260040160405180910390fd5b6000806000838152602001908152602001600020905060006002811115610b45577f4e487b7100000000000000000000000000000000000000000000000000000000600052602160045260246000fd5b8160030160149054906101000a900460ff166002811115610b8f577f4e487b7100000000000000000000000000000000000000000000000000000000600052602160045260246000fd5b14610bc6576040517fbaf3f0f700000000000000000000000000000000000000000000000000000000815260040160405180910390fd5b60018160030160146101000a81548160ff02191690836002811115610c14577f4e487b7100000000000000000000000000000000000000000000000000000000600052602160045260246000fd5b02179055505050565b60008073ffffffffffffffffffffffffffffffffffffffff1660008084815260200190815260200160002060030160009054906101000a900473ffffffffffffffffffffffffffffffffffffffff1673ffffffffffffffffffffffffffffffffffffffff1614159050919050565b60003373ffffffffffffffffffffffffffffffffffffffff1660008084815260200190815260200160002060030160009054906101000a900473ffffffffffffffffffffffffffffffffffffffff1673ffffffffffffffffffffffffffffffffffffffff16149050919050565b80600360006101000a81548173ffffffffffffffffffffffffffffffffffffffff021916908373ffffffffffffffffffffffffffffffffffffffff16021790555050565b6040518060a00160405280600081526020016000815260200160008019168152602001600073ffffffffffffffffffffffffffffffffffffffff16815260200160006002811115610db6577f4e487b7100000000000000000000000000000000000000000000000000000000600052602160045260246000fd5b81525090565b600081359050610dcb816112ae565b92915050565b600081359050610de0816112c5565b92915050565b600081359050610df5816112dc565b92915050565b600081359050610e0a816112f3565b92915050565b600060208284031215610e2257600080fd5b6000610e3084828501610dbc565b91505092915050565b60008060408385031215610e4c57600080fd5b6000610e5a85828601610dd1565b9250506020610e6b85828601610de6565b9150509250929050565b600060208284031215610e8757600080fd5b6000610e9584828501610de6565b91505092915050565b600060208284031215610eb057600080fd5b6000610ebe84828501610dfb565b91505092915050565b610ed0816110f5565b82525050565b610edf816110f5565b82525050565b610ef6610ef1826110f5565b6111d5565b82525050565b610f0d610f0882611107565b6111e7565b82525050565b610f1c81611133565b82525050565b610f2b81611133565b82525050565b610f3a8161117a565b82525050565b6000610f4d600f836110e4565b9150610f588261126e565b602082019050919050565b6000610f706000836110d9565b9150610f7b82611297565b600082019050919050565b60a082016000820151610f9c6000850182610fee565b506020820151610faf6020850182610fee565b506040820151610fc26040850182610f13565b506060820151610fd56060850182610ec7565b506080820151610fe86080850182610f31565b50505050565b610ff781611170565b82525050565b61100681611170565b82525050565b60006110188285610efc565b6010820191506110288284610ee5565b6014820191508190509392505050565b600061104382610f63565b9150819050919050565b60006020820190506110626000830184610ed6565b92915050565b600060208201905061107d6000830184610f22565b92915050565b6000602082019050818103600083015261109c81610f40565b9050919050565b600060a0820190506110b86000830184610f86565b92915050565b60006020820190506110d36000830184610ffd565b92915050565b600081905092915050565b600082825260208201905092915050565b600061110082611150565b9050919050565b60007fffffffffffffffffffffffffffffffff0000000000000000000000000000000082169050919050565b6000819050919050565b600081905061114b8261129a565b919050565b600073ffffffffffffffffffffffffffffffffffffffff82169050919050565b6000819050919050565b60006111858261113d565b9050919050565b600061119782611170565b91507fffffffffffffffffffffffffffffffffffffffffffffffffffffffffffffffff8214156111ca576111c9611203565b5b600182019050919050565b60006111e0826111f1565b9050919050565b6000819050919050565b60006111fc82611261565b9050919050565b7f4e487b7100000000000000000000000000000000000000000000000000000000600052601160045260246000fd5b7f4e487b7100000000000000000000000000000000000000000000000000000000600052602160045260246000fd5b60008160601b9050919050565b7f5472616e73666572206661696c65640000000000000000000000000000000000600082015250565b50565b600381106112ab576112aa611232565b5b50565b6112b7816110f5565b81146112c257600080fd5b50565b6112ce81611107565b81146112d957600080fd5b50565b6112e581611133565b81146112f057600080fd5b50565b6112fc81611170565b811461130757600080fd5b5056fea26469706673582212203e03c806a91eb572ca61ed6eee5b3b8ee68532891d8ec2ec1b061010759ac82964736f6c63430008040033",
  "immutableReferences": {},
  "source": "// SPDX-License-Identifier: MIT\npragma solidity >=0.4.22 <0.9.0;\n\ncontract MethodMarketplace {\n    enum State {\n        Purchased,\n        Activated,\n        Deactivated\n    }\n\n    struct Method {\n        uint id; // 32\n        uint price; // 32\n        bytes32 proof; // 32\n        address owner; // 20\n        State state; // 1\n    }\n\n    // Mapping of methodHash to Method data\n    mapping(bytes32 => Method) private ownedMethods;\n\n    // Mapping of methodId to methodHash\n    mapping(uint => bytes32) private ownedMethodHash;\n\n    // number of all methods = id of the method\n    uint private totalOwnedMethods;\n\n    address payable private owner;\n\n    constructor() {\n        setContractOwner(msg.sender);\n    }\n\n    /// Method has invalid state!\n    error InvalidState();\n\n    /// Method is not created!\n    error MethodIsNotCreated();\n\n    /// Method has already a owner!\n    error MethodHasOwner();\n\n    /// Sender is not the method owner!\n    error SenderIsNotMethodOwner();\n\n    /// Only owner has an access!\n    error OnlyOwner();\n\n    modifier onlyOwner() {\n        if (msg.sender != getContractOwner()) {\n            revert OnlyOwner();\n        }\n        _;\n    }\n\n    // method id: 0x00000000000000000000000000003130\n    // proof: 0x0000000000000000000000000000313000000000000000000000000000003130\n    function purchaseMethod(bytes16 methodId, bytes32 proof) external payable {\n        bytes32 methodHash = keccak256(abi.encodePacked(methodId, msg.sender));\n\n        if (hasMethodOwnership(methodHash)){\n            revert MethodHasOwner();\n        }\n\n        uint id = totalOwnedMethods++;\n\n        ownedMethodHash[id] = methodHash;\n        ownedMethods[methodHash] = Method({\n            id: id,\n            price: msg.value,\n            proof: proof,\n            owner: msg.sender,\n            state: State.Purchased\n        });\n    }\n\n    function repurchaseMethod(bytes32 methodHash) external payable {\n        if (!isMethodCreated(methodHash)) {\n            revert MethodIsNotCreated();\n        }\n\n        if (!hasMethodOwnership(methodHash)) {\n            revert SenderIsNotMethodOwner();\n        }\n\n        Method storage method = ownedMethods[methodHash];\n\n        if (method.state != State.Deactivated) {\n            revert InvalidState();\n        }\n\n        method.state = State.Purchased;\n        method.price = msg.value;\n    }\n\n    function activateMethod(bytes32 methodHash) external onlyOwner {\n        if (!isMethodCreated(methodHash)) {\n            revert MethodIsNotCreated();\n        }\n\n        Method storage method = ownedMethods[methodHash];\n\n        if (method.state != State.Purchased) {\n            revert InvalidState();\n        }\n\n        method.state = State.Activated;\n    }\n\n    function deactivateMethod(bytes32 methodHash) external onlyOwner {\n        if (!isMethodCreated(methodHash)) {\n            revert MethodIsNotCreated();\n        }\n\n        Method storage method = ownedMethods[methodHash];\n\n        if (method.state != State.Purchased) {\n            revert InvalidState();\n        }\n\n        (bool success, ) = method.owner.call{value: method.price}(\"\");\n        require(success, \"Transfer failed\");\n\n        method.state = State.Deactivated;\n        method.price = 0;\n    }\n\n    function transferOwnership(address newOwner) external onlyOwner {\n        setContractOwner(newOwner);\n    }\n\n    function getMethodCount() external view returns (uint) {\n        return totalOwnedMethods;\n    }\n\n    function getMethodHashAtIndex(uint index) external view returns (bytes32) {\n        return ownedMethodHash[index];\n    } \n\n    function getMethodByHash(bytes32 methodHash) external view returns (Method memory) {\n        return ownedMethods[methodHash];\n    }\n\n    function getContractOwner() public view returns (address) {\n        return owner;\n    }\n\n    function setContractOwner(address newOwner) private {\n        owner = payable(newOwner);\n    }\n\n    function isMethodCreated(bytes32 methodHash) private view returns (bool) {\n        return ownedMethods[methodHash].owner != 0x0000000000000000000000000000000000000000;\n    }\n\n    function hasMethodOwnership(bytes32 methodHash) private view returns (bool) {\n        return ownedMethods[methodHash].owner == msg.sender;\n    } \n}\n",
  "sourcePath": "/Users/buudinhha/Vscode/blockchain/my-app/contracts/MethodMarketplace.sol",
  "compiler": {
    "name": "solc",
    "version": "0.8.4+commit.c7e474f2.Emscripten.clang"
  },
  "schemaVersion": "3.4.16",
  "updatedAt": "2024-01-20T15:52:13.719Z",
  "networkType": "ethereum",
  "devdoc": {
    "kind": "dev",
    "methods": {},
    "version": 1
  },
  "userdoc": {
    "errors": {
      "InvalidState()": [
        {
          "notice": "Method has invalid state!"
        }
      ],
      "MethodHasOwner()": [
        {
          "notice": "Method has already a owner!"
        }
      ],
      "MethodIsNotCreated()": [
        {
          "notice": "Method is not created!"
        }
      ],
      "OnlyOwner()": [
        {
          "notice": "Only owner has an access!"
        }
      ],
      "SenderIsNotMethodOwner()": [
        {
          "notice": "Sender is not the method owner!"
        }
      ]
    },
    "kind": "user",
    "methods": {},
    "version": 1
  }
}